:020000040800F2
:10000000000400202102000811030008E10200089A
:10001000E1020008E1020008E1020008E102000834
:10002000E1020008E1020008E1020008E102000824
:10003000E1020008E1020008E10200088103000873
:10004000E1020008E1020008E1020008E102000804
:10005000E1020008E1020008E1020008E1020008F4
:10006000E1020008E1020008E1020008E1020008E4
:10007000E1020008E1020008E10200082156000840
:10008000E1020008E1020008E1020008E1020008C4
:10009000E1020008E1020008E1020008E1020008B4
:1000A000E1020008E1020008E1020008C156000870
:1000B000E1020008E1020008E1020008E102000894
:1000C00070B582B005F09CF800F0CAF9184E002116
:1000D000301C05F01DF990208021C0058900822286
:1000E00005F036FA90208021C005C900822205F073
:1000F0002FFA98210024490040220E4B0E4800940C
:1001000000F0E6FB98210D48490040220C4B902559
:100110000094ED0500F0DCFB012402E0094800F04A
:1001200017FC2B691C42F9D0301C01F061FEF5E789
:1001300034110020A1580008B0110020E012002066
:100140006158000850C30000C046C046C046C046C3
:10015000002934D00123002210B488422CD301247A
:100160002407A14204D2814202D209011B01F8E70F
:10017000E400A14204D2814202D249005B00F8E7C8
:10018000884201D3401A1A434C08A04202D3001BF4
:100190005C0822438C08A04202D3001B9C08224327
:1001A000CC08A04202D3001BDC082243002803D065
:1001B0001B0901D00909E3E7101C10BC7047002897
:1001C00001D00020C04307B4024802A140180290A9
:1001D00003BDC0461D0000000029F0D003B5FFF7A5
:1001E000B9FF0EBC4243891A1847C0460000000000
:1001F0007047C04600000000000000000000000042
:100200007047C046C046C046C046C046C046C0460D
:10021000FEE7C046C046C046C046C046C046C046CF
:1002200072B6204A82F30988022383F31488BFF34D
:100230006F8F1D4B1D498B4203D21D4801C38B425A
:10024000FCD31C4B934203D2194902C39342FCD303
:1002500005F0F6FA184B1948834204D2184A02CA2C
:1002600002C38342FBD3174B174A934203D20021A8
:1002700002C39342FCD3FFF7C3FF144C144DAC42AE
:1002800003D208CC9847AC42FBD3FFF719FF114CBF
:10029000114DAC4203D208CC9847AC42FBD3FFF7D8
:1002A000B7FFC04600080020000000200004002026
:1002B000555555550004002000080020B8080020BE
:1002C00008660008B808002010140020C0000008CC
:1002D000C0000008C0000008C0000008C046C046BA
:1002E000FEE7C046C046C046C046C046C046C046FF
:1002F00000F096FA8022024B12065A60FEE7C046D2
:1003000000ED00E0C046C046C046C046C046C046FC
:10031000EFF30983203383F3098862B67047C04640
:1003200000B50F3017D072B6EFF30983203B83F38B
:1003300009880F48802252048169DA61CA7F002A45
:100340000AD100688968806888425241D2B2002A86
:100350000AD1084A9A6100BD026889689268914290
:1003600092415242002AF4D0034A9A61F3E7C04610
:10037000D0090020F4020008F1020008C046C0467F
:1003800010B5744672B600F0ABF862B6201CFFF7E9
:10039000C7FF10BDC046C046C046C046C046C046A6
:1003A000F0B544464D4656465F46F0B46B46CB60CA
:1003B000C3689D46F0BCA046A946B246BB46F0BD08
:1003C00062B6281CA04700F00BFB7047C046C04631
:1003D00070B582080D4BC032032492000440D558FA
:1003E000E400FF26A640B543A1402C1C0C431F216E
:1003F000D4504209084001218140081C111C603181
:1004000089009200C850D05070BDC04600E100E0A5
:1004100030B58208074B0325063292002840D45895
:10042000C000FF258540AC438140201C0843D050CC
:1004300030BDC04600ED00E0C046C046C046C046E4
:1004400000B5024B024A9B699A61FEE7D009002081
:10045000E0580008C046C046C046C046C046C04638
:1004600000B5154A154B83B0DA600A200021FFF76A
:10047000CFFF0B208021FFF7CBFF00F0F9F800F051
:100480005FF801F015FA01F053FA40210C4800F032
:10049000D7F90C4B01229861027762B69B690A4A30
:1004A0000A489A6100230093C0210122084B00F002
:1004B0000FFA03B000BDC0460000FA0500ED00E0F1
:1004C000B8080020D0090020F058000800090020DA
:1004D00041040008C046C046C046C046C046C046AB
:1004E00038B5124B9B69DA7F002A01D0013ADA77DE
:1004F0001A6A0F4C01321A62E36822680133E36022
:10050000A24212D09368013B9360002B0DD10025CD
:100510001168D3684C60D560216062B61069984755
:1005200072B622689368002BF2D038BDD009002043
:10053000C0090020C046C046C046C046C046C046AE
:10054000044B012252429A6000225B601B60DA6019
:100550007047C046C0090020C046C046C046C046DD
:1005600010B50C4C03612368C2609A68914204D9AB
:100570001B68891A9A688A42FAD35A6803604260F3
:10058000106058608160A34202D09A68511A996045
:1005900010BDC046C0090020C046C046C046C04687
:1005A00000B50368064A934203D0996882688A18A6
:1005B0009A604268136003685A600023C36000BDFC
:1005C000C0090020C046C046C046C046C046C0461E
:1005D00000B50B4BDB68814208D88B428941494208
:1005E000002283425241081C104300BD00228B426E
:1005F0008941834252414942101C0840F5E7C046F8
:10060000C0090020C046C046C046C046C046C046DD
:1006100000B572B6037F032B19D015D9052B1AD05C
:100620000D2B18D001235B424362002303778168BE
:100630000C4B1B689A688A42FBD25A68036042607E
:100640001060586062B600BD002BFBD0EAE7436A39
:100650009A6801329A60436802681A6002685360BF
:10066000E0E7C046D0090020C046C046C046C046AC
:10067000034B00225B601B609A605B611B617047EB
:10068000D0090020C046C046C046C046C046C0464D
:1006900000B5002303778168054B1B689A688A427E
:1006A000FBD25A68036042601060586000BDC046CB
:1006B000D0090020C046C046C046C046C046C0461D
:1006C00008B5074B1422996908771868CA77026839
:1006D00053601A60986101230377FFF761FE08BD3C
:1006E000D0090020C046C046C046C046C046C046ED
:1006F00030B587B0051C4B1C12D00B4C01A8A36968
:100700000A4AFFF72DFF281CFFF7DAFF049B002B96
:1007100002D001A8FFF744FFA36907B0586A30BDB3
:10072000FFF7CEFF004CF7E7D009002011060008C4
:1007300070B5124E4162B16985688C680023A5428C
:100740000BD80377331C1B689A689542FBD95A680B
:10075000036042601060586070BD0B77331C1B68EB
:100760009A689442FBD95A680B604A605960012329
:1007700011600377B061FFF713FEEDE7D0090020A9
:1007800010B50E4B1868996902688C6853601A603E
:100790009861012303771423CB7700230B77031C85
:1007A00000E01B689A68A242FBD25A680B604A605C
:1007B00011605960FFF7F4FD10BDC046D00900205C
:1007C00010B50D4B1868996902688C6853601A60FF
:1007D00098610123037700230B77031C00E01B685B
:1007E0009A68A242FBD85A680B604A60116059604F
:1007F000FFF7D6FD10BDC046D0090020C046C04658
:1008000008B5054B1A689B6992689B689A4201D9A2
:10081000FFF7D6FF08BDC046D0090020C046C0463D
:1008200008B5054B9B69DB7F002B02D0FFF7C8FFA3
:1008300008BDFFF7A5FFFBE7D0090020C046C04672
:1008400002230377002343771422C3638363036285
:100850008361094BC277012282775A690361816003
:1008600042615861031C28338362043301641061C0
:100870000363C3627047C046D0090020C046C0462B
:1008800024394118C1600B61009B4B610E4B0B6218
:100890000223037700234377C36383630362836187
:1008A0000A4B82600264012282775A6903614261C5
:1008B0005861031C2833142183620433C17710610B
:1008C0000363C3627047C046C1030008D00900201B
:1008D00010B582B072B6049C0094FFF7D1FF0021DE
:1008E000041CFFF725FF62B602B0201C10BDC046F5
:1008F00010B572B6074B9B691C6C9A68944201D084
:10090000824200D298601864FFF77AFF62B6201C1A
:1009100010BDC046D0090020C046C046C046C046F3
:1009200010B5041C72B60021FFF702FF62B6201C4E
:1009300010BDC046C046C046C046C046C046C046C0
:1009400072B6427F04231343437762B67047C046B2
:1009500008B5011C72B60620FFF7CAFE62B608BDD4
:1009600008B572B6044BDB68C11A02D00620FFF747
:10097000BFFE62B608BDC046C0090020C046C046E2
:1009800008B572B6054B1A689B6992689B689A42D3
:1009900001D3FFF7F5FE62B608BDC046D0090020BE
:1009A00038B50D4B9C696062251CA06A2835A842A9
:1009B00006D00368A362FFF76BFEA06AA842F8D1D5
:1009C000637F9A0704D1636922691A6122695361BE
:1009D0000E20FFF775FE38BDD0090020C046C04686
:1009E00008B572B6FFF7DCFF08BDC046C046C0467A
:1009F00038B5041C72B6037F0E2B07D0074B826AF2
:100A00009B691A6083620720FFF75AFE656A62B627
:100A1000201C00F00DF8281C38BDC046D00900206D
:100A200072B6837F0133837762B67047C046C04693
:100A300008B5011C72B6837F013BDBB2837762B6D7
:100A4000002B02D1037F0E2B00D008BD437F032271
:100A50001340012B0AD0022BF7D1436902691A61B6
:100A60000269406C536101F04BF8EEE7436902699B
:100A70001A610269536100F0BBFFE6E7C046C04659
:100A8000F0B583B00D1C161C1F1C00F071FF002474
:100A900000280ED072B6089B291C0093321C3B1C08
:100AA000FFF7EEFE012343770021041CFFF740FE11
:100AB00062B603B0201CF0BDC046C046C046C0466A
:100AC000F0B5474680B482B0051C0F1C90461E1C32
:100AD00001F006F8002400280ED072B669683A1CAE
:100AE00043460096FFF7CCFE02234377456400217E
:100AF000041CFFF71DFE62B602B0201C04BC904629
:100B0000F0BDC046C046C046C046C046C046C0460E
:100B100072B6034B1869837F0133837762B67047DF
:100B2000D0090020C046C046C046C046C046C046A8
:100B300010B572B60469064B9C4207D0A37F0133FF
:100B4000A37762B6FFF774FF201C10BD0024F8E7FE
:100B5000D0090020C046C046C046C046C046C04678
:100B60004060006081607047C046C046C046C046D5
:100B700070B58568041C01358160002D0BDC0226F0
:100B8000764260680135436863601C60FFF780FD52
:100B90004662012DF5D170BDC046C046C046C04674
:100BA00008B572B6FFF7E4FFFFF72AFE62B608BD8C
:100BB00010B58268031C013A82600020002A00DB25
:100BC00010BD074C0320A26953625968136051603D
:100BD0005A600A60FFF774FDA369586AF0E7C046DF
:100BE000D0090020C046C046C046C046C046C046E8
:100BF00008B572B6FFF7DCFF62B608BDC046C04656
:100C000010B58468031C621E82600020002A00DB8D
:100C100010BD00290BD0084A9269536258681360CE
:100C200050605A6002600320FFF762FDF0E7012088
:100C30009C604042ECE7C046D0090020C046C04658
:100C400008B572B6FFF7DCFF62B608BDC046C04605
:100C500008B572B6836801338360002B01DD62B68C
:100C600008BD036800211A6802605060181CFFF775
:100C70005FFDF4E7C046C046C046C046C046C04619
:100C800008B5836801338360002B00DD08BD03686D
:100C90001A680260506000225A62181CFFF7F8FCC4
:100CA000F4E7C046C046C046C046C046C046C0463F
:100CB00070B5051C0C1E13DD002602E0013C002C63
:100CC0000ED0AB680133AB60002BF7DC2868013C29
:100CD00003682B605D60FFF7DBFC4662002CF0D1FF
:100CE00070BDC046C046C046C046C046C046C046AD
:100CF00038B50C1C72B6836801338360002B16DD97
:100D0000A368013BA360002B04DBFFF779FD002003
:100D100062B638BD0B4B03209D6963682C606B6025
:100D200065601D606C62FFF7CBFC686AF0E70368E2
:100D30001A6802605060181CFFF7AAFC0023436287
:100D4000DEE7C046D0090020C046C046C046C046C7
:100D500000234060006083607047C046C046C046C4
:100D600070B5051C2E4B80689C69002850D0A26885
:100D700083689A4207D9037F8260042B30D0052B09
:100D80001BD0002B11D02B1C1B689D4203D09968EF
:100D9000A2689142F8D25A682360626014605C6075
:100DA00065620420FFF78CFC70BD436802681A601E
:100DB00002685360FFF76CFCE5E743680168466A28
:100DC000196001684B60331C1B689E4202D0996811
:100DD0009142F9D25A680360426010605860D2E7CD
:100DE00043680168466A196001684B60331C1B68E0
:100DF0009E4212D099689142F9D25A6803604260CB
:100E000010605860B068A26883689342B3D3BAE7B1
:100E1000E36BAC60EB60E563C6E7331CEDE7C0460F
:100E2000D0090020C046C046C046C046C046C046A5
:100E300008B572B6FFF794FF62B608BDC046C0465B
:100E400000B5031C72B682680020002A01D062B689
:100E500000BD044A01209269D16B9A60D960D363C6
:100E6000F5E7C046D0090020C046C046C046C0468F
:100E700038B5134B9D6972B6EC6BE3682068EB6381
:100E8000A0421AD0296C002B09D01A689A4203D0CC
:100E90009268914200D2111CDB68002BF5D10368E7
:100EA000A96023605C60C36BA060E3600021C46341
:100EB000FFF73EFC62B6201C38BD0023A360F9E7B3
:100EC000D0090020C046C046C046C046C046C04605
:100ED00038B5124B9D69EC6BE3682068EB63A04268
:100EE00018D0296C002B09D01A689A4203D0926856
:100EF000914200D2111CDB68002BF5D10368A96078
:100F000023605C60C36BA060E360C463FFF7C0FB59
:100F1000201C38BD0023A360FAE7C046D00900209A
:100F200038B5114B9C6972B6E36B002B1AD00025C3
:100F30000BE002681A605360C26B9860DA60C363AA
:100F4000FFF7A6FBE36B002B08D0DA681868E263B2
:100F50009842EED19D60E36B002BF6D1236CA36029
:100F6000FFF74EFC62B638BDD0090020C046C0462F
:100F7000406000607047C046C046C046C046C0469C
:100F800008B572B60368834206D01A680021026071
:100F90005060181CFFF7CCFB62B608BDC046C046C7
:100FA00008B50368834207D01A6802605060181CB5
:100FB000FFF76EFB0023436208BDC046C046C04633
:100FC00038B5041C0068A0420AD002256D420368AF
:100FD00023605C60FFF75CFB45622068A042F6D1AD
:100FE00038BDC046C046C046C046C046C046C046E2
:100FF00008B572B6FFF7E4FFFFF702FC62B608BD62
:1010000070B5104B051C9C69FFF762FF6562061CFA
:101010002B1C281C03E09968A268914210D31B681E
:101020009D42F8D14368206063601C6044600520E5
:10103000FFF746FB646A301CFFF792FE201C70BD70
:10104000181CEFE7D0090020C046C046C046C04685
:1010500008B572B6FFF7D4FF62B608BDC046C046F9
:10106000F8B5041C0E1CFFF733FF104B051C9869E4
:10107000271C4462231C03E099688268914213D3C1
:101080001B689C42F8D17B680760436018607860F9
:10109000311C0520FFF72CFB041C431C02D0281C2C
:1010A000FFF75EFE201CF8BD1F1CECE7D0090020F6
:1010B00008B572B6FFF7D4FF62B608BDC046C04699
:1010C00072B603680B60044B01609B698A604B60D9
:1010D0000023CB6062B67047D0090020C046C046EE
:1010E00000B572B6021C02E0994205D01A1C1368C2
:1010F0008342F9D162B600BD0B681360FAE7C046BF
:1011000072B6044B9A69936B191C8143916362B662
:1011100018407047D0090020C046C046C046C046AF
:1011200072B6034B9B699A6B1043986362B6704723
:10113000D0090020C046C046C046C046C046C04692
:1011400008B5836B1943037F8163082B0BD0092BF0
:1011500000D008BD436A19408B42FAD1FFF798FAD4
:1011600000234362F5E7436A0B42F2D0FFF790FA9F
:1011700000234362EDE7C046C046C046C046C046B5
:1011800008B572B6FFF7DCFFFFF73AFB62B608BDA1
:1011900070B50468051C0E1CA04209D0E3686068A5
:1011A0003343E360A168FFF7CBFF2468A542F5D184
:1011B00070BDC046C046C046C046C046C046C046D8
:1011C00008B572B6FFF7E4FFFFF71AFB62B608BD79
:1011D000F8B50D1E13D0061C0024012703E00134CE
:1011E0000436002D0BD03B1CA3401D42F7D0201C21
:1011F0009D433368984701340436002DF3D1F8BD80
:1012000038B50A4B051C9C6972B6A26B131C0340CF
:1012100006D160620820FFF753FAA26B131C2B4023
:10122000584218408243A26362B638BDD0090020FC
:1012300038B5094B051C9C6972B6A36B181C284075
:1012400006D108206562FFF73BFAA36B181C284003
:101250008343A36362B638BDD0090020C046C046B0
:1012600038B5094B041C9D6972B6AB6B1A1C024061
:10127000824204D068620920FFF722FAAB6BA343D5
:10128000AB6362B6201C38BDD0090020C046C04602
:1012900070B50D4B061C9D6972B6AB6B1C1C0440EF
:1012A0000DD1002902D162B6201C70BD68620820F1
:1012B000FFF71EFA0028F6DBAB6B1C1C34406242C1
:1012C0001440A343AB63EEE7D0090020C046C046FC
:1012D00070B50C4B061C9D6972B6AB6B1C1C0440B0
:1012E0000DD1002902D162B6201C70BD68620820B1
:1012F000FFF7FEF90028F6DBAB6B1C1C3440A34360
:10130000AB63F0E7D0090020C046C046C046C046E7
:1013100038B50D4B041C9D6972B6AB6B1A1C0240AC
:1013200082420BD0002902D162B6002409E0686233
:101330000920FFF7DDF90028F6DBAB6BA343AB63B5
:1013400062B6201C38BDC046D0090020C046C04649
:1013500010B50C4B9C6972B6031C2C33636223607E
:10136000036B6163636004631C60037F0C2B05D017
:101370000A20FFF7A5F9606A62B610BDFFF788F989
:10138000F6E7C046D0090020C046C046C046C04669
:1013900010B572B60A4CA3691A1CD86A2C32904256
:1013A00006D00168D9620B234A60037762B610BD8C
:1013B0000C20FFF785F9A3691A1CD86A2C32F0E7D4
:1013C000D0090020C046C046C046C046C046C04600
:1013D00008B572B6FFF7ACF962B608BDC046C046A4
:1013E00010B5041CE160A16021600B1C91005B182A
:1013F0004360111C1C30FFF7B3FB201C1030002190
:10140000FFF7AEFB10BDC046C046C046C046C04652
:1014100010B5041C72B603686168C360C91A8360A2
:1014200089101C30FFF7A4FB201C10300021FFF7AF
:101430009FFBFFF7E5F962B610BDC046C046C04647
:1014400070B5041C0E1C1C30111CFFF7D9FB051EC7
:101450000BD1A368626840C3A360934207D2201CEB
:101460001030FFF70DFCFFF7CBF9281C70BD236887
:10147000A360F4E7C046C046C046C046C046C0466A
:1014800008B572B6FFF7DCFF62B608BDC046C046BD
:1014900008B5436A002B0FDD013B43628368426855
:1014A00002C38360934204D21030FFF7E9FB0020AF
:1014B00008BD03688360F7E701204042F8E7C046B3
:1014C00070B5041C0E1C1C30111CFFF799FB051E87
:1014D0000CD1E3682268043BE360934208D3201CEC
:1014E0001E601030FFF7CCFBFFF78AF9281C70BD97
:1014F0006368043BE360F2E7C046C046C046C046AE
:1015000008B572B6FFF7DCFF62B608BDC046C0463C
:1015100008B5436A002B11DD013B4362C3680268D2
:10152000043BC360934205D310301960FFF7A8FB5A
:10153000002008BD4368043BC360F5E7012040423A
:10154000F7E7C046C046C046C046C046C046C04693
:1015500070B5041C0E1C1030111CFFF751FB051E4A
:101560000CD1E36804CB32606268E360934207D237
:10157000201C1C30FFF784FBFFF742F9281C70BDCC
:101580002368E360F4E7C046C046C046C046C04694
:1015900008B572B6FFF7DCFF62B608BDC046C046AC
:1015A00008B58369002B10DD013B8361C36804CB60
:1015B0000A604268C360934204D21C30FFF760FBAC
:1015C000002008BD0368C360F7E701204042F8E748
:1015D00008B500290BD0074B9B6958624268186018
:1015E0005A60436013600D20FFF782F808BD0120A8
:1015F0004042FBE7D0090020C046C046C046C04676
:1016000010B5C361029B002441618161C1608918EA
:101610004060006084600161036210BDC046C04646
:1016200038B5C368041C436183610023836000688C
:10163000A0420AD002256D42036823605C60FFF778
:1016400027F8456220688442F6D138BDC046C046BE
:1016500010B543698269934218D082680132826072
:10166000197002690133436193420CD2036800246C
:10167000834206D01A6802605060181CFFF708F811
:101680004462201C10BDC3684361EFE78268002AF2
:10169000E4D004246442F4E7C046C046C046C046D5
:1016A00038B5041C0D1C72B6C369002B00D09847D6
:1016B000A368002B07D1201C291CFFF789FF0028F5
:1016C000F6DA62B638BD013BA360A36922691878D7
:1016D0000133A3619342F4D3E368A361F1E7C04609
:1016E000F8B54F464646C0B4041C884691461D1CBA
:1016F000C76972B60026002F01D0201CB847A36826
:10170000002B0BD1201C291CFFF762FF0028F6D00C
:1017100062B6301C0CBC90469946F8BD013BA360F4
:10172000A36941461A7801338A552269A36193421D
:1017300005D262B60136B145EBD072B6DBE7E3689D
:10174000A361F6E7C046C046C046C046C046C04694
:10175000C361009B41618161C16089184060006084
:101760008260016103627047C046C046C046C04601
:1017700038B5C368026943618361D31A041C83606E
:101780000068A0420AD002256D42036823605C60B5
:10179000FEF77EFF456220688442F6D138BDC04620
:1017A00070B5041C0E1C151C72B6A368002B07D163
:1017B000201C291CFFF70CFF0028F6DA62B670BD6A
:1017C000013BA36063691E70226901336361934228
:1017D00001D3E3686361E369002B01D0201C9847C3
:1017E00062B60020EBE7C046C046C046C046C046D1
:1017F00010B5836942699A4218D0826801328260CA
:1018000002691C780133836193420CD203688342DE
:1018100007D01A6802605060181CFEF739FF0023D9
:101820004362201C10BDC3688361EFE78268002A11
:10183000E4D003204042F5E7C046C046C046C0465B
:10184000F8B54F464646C0B49946C369041C0E1C01
:10185000151C984672B60027A368002B1AD0013BCE
:10186000A360327863691A7022690133636193421D
:1018700001D3E36863614346002B01D0201CC047BD
:1018800062B6013D0137002D0BD0013672B6A36858
:10189000002BE4D1201C4946FFF79AFE0028DBD03C
:1018A00062B6381C0CBC90469946F8BDC046C0468E
:1018B00005490723054A073199431160044A9A43B1
:1018C000044B1A607047C04610140020F009002035
:1018D00000200020EC090020C046C046C046C0469B
:1018E00000B572B60723C21D9A430649064B096824
:1018F0001868091A8A4203D882181A6062B600BDB5
:101900000020FBE7EC090020F0090020C046C0469B
:10191000024B1868024B1B68C01A7047EC09002084
:10192000F0090020C046C046C046C046C046C0467A
:1019300008B50548054B036000238360C360103081
:10194000FFF706FA08BDC046F8090020E1180008B4
:1019500008B50023083A03608160C3600B604A60E9
:101960001030FFF7F5F908BDC046C046C046C04676
:10197000F8B5071E34D0381CCE1D07233D1C10308F
:101980009E430835FFF754FA00E0251C2C68002C14
:1019900017D063689E42F8D8321C083293420DD3A8
:1019A00021689B1BA218083B116053602A60666087
:1019B0002760FFF75DFA201C0830F8BD23682B6014
:1019C000F6E7FFF755FA3B680020002BF5D0301CF6
:1019D000083098470028F0D0076046600830ECE7F0
:1019E000004FC8E7F8090020C046C046C046C046C0
:1019F00038B5041C083C2068051C08351030FFF77A
:101A000017FA2B1CA34201D3AB421CD11A68002A3F
:101A100007D0944205D3131CA342F5D21A68002ABA
:101A2000F7D1616822601C600A1C08322068A21885
:101A300082420AD05A68111C083159188C4210D0C1
:101A4000FFF716FA38BD1B68DCE750681268091802
:101A50000831616022605A68111C083159188C42A3
:101A6000EED16168521808325A6022681A60E7E7BE
:101A700038B5041C0D1C002815D0201C1030FFF7B1
:101A8000D7F9A36800220024002B05D059681B68F1
:101A900052180134002BF9D1002D00D02A60FFF735
:101AA000E7F9201C38BD014CE7E7C046F8090020E3
:101AB00000230360416082607047C046C046C04654
:101AC00000B507E072B603680B60016062B6436858
:101AD000013AC918002AF5D100BDC046C046C0462B
:101AE00008B5021C72B60068002803D003681360B2
:101AF00062B608BD9368002BFAD050689847F7E7A4
:101B000072B603680B60016062B67047C046C0469B
:101B1000014B01221A7070470D100020C046C046CC
:101B200038B5084D4C2428682D210368013C9B687A
:101B30009847002CF7D128680349036802221B68E4
:101B4000984738BD4010002030590008C046C046B4
:101B5000F0B585B0061E22D06F466D46301C0A21B6
:101B6000FEF73AFB0C1C3034301CE4B20A212C7016
:101B7000FEF7EEFA0135061EF0D1BD420DD96F46D3
:101B800001370A4E02E0AB1E1C78013D3068211C73
:101B900003689B689847BD42F5D105B0F0BD034B83
:101BA0003021186803689B689847F6E740100020CA
:101BB00038B50178002909D0054D041C2868013486
:101BC00003689B68984721780029F7D138BDC04643
:101BD00040100020C046C046C046C046C046C04671
:101BE00008B5FFF7E5FF044B0449186802220368B3
:101BF0001B68984708BDC0464010002030590008B7
:101C000072B6034B1A68107001321A6062B67047E0
:101C100010100020C046C046C046C046C046C04660
:101C200000B5031C0020002907D1044901220A70D5
:101C3000034901200A70034A136000BD0C10002004
:101C40001410002008100020C046C046C046C04600
:101C5000F0B50E4E0E4F35683B1C05E01C780A7837
:101C600001330131944207D1AB42F7D30B78002BFB
:101C700002D13760002007E0064A01231370064AAC
:101C80001370064B18600120F0BDC04610100020F4
:101C9000441000200C100020141000200810002018
:101CA00010B5041C081C111CFEF792FC0023002830
:101CB00007D1054A01231370044A1370044B1C60BA
:101CC0000123181C10BDC0460C1000201410002069
:101CD00008100020C046C046C046C046C046C046A8
:101CE00038B5054C251C143501CC002801D0FEF771
:101CF00027FEAC42F8D138BD2C100020C046C046AB
:101D000070B5074C0026251C14352068002802D029
:101D1000FEF76EFE26600434AC42F6D170BDC046BC
:101D20002C100020C046C046C046C046C046C04633
:101D300070B5124BFA219D69114B89005843013847
:101D4000FEF706FA2C6A0022661C361808E0101C02
:101D5000B3428941A34250414942031C0B400BD07E
:101D60002B6AB442F3D3B34280414042111CA342D8
:101D70005141031C0B43F3D170BDC046D009002074
:101D8000A0860100C046C046C046C046C046C04608
:101D900008B50120FEF7DCFD014BD86808BDC04640
:101DA000C0090020C046C046C046C046C046C04626
:101DB00008B5094B00221A7072B6084BFA21584335
:101DC00089000138FEF7C4F9054A411C0023054883
:101DD000FEF7C6FB62B608BD0D100020A08601000C
:101DE000111B000818100020C046C046C046C0465F
:101DF000F0B55F4656464D464446F0B4684E83B053
:101E000030606848FFF7ECFE6748FFF7E9FE674877
:101E1000FFF7E6FE6648FFF7CBFE6648FFF7E0FEF9
:101E20006548FFF7C5FE6548FFF7DAFE6448FFF72F
:101E3000BFFE6448FFF7D4FE6348FFF7B9FE63486E
:101E4000FFF7CEFE6248FFF7B3FE6248FFF7C8FE19
:101E50006148FFF7ADFE6148FFF7C2FE6048FFF73B
:101E6000A7FE6048FFF7BCFE5F48FFF7A1FE5F4892
:101E7000FFF7B6FE4B48FFF7B3FE5D4A0023137031
:101E80005C4B5D4F043301930023009398465B4BFA
:101E90009B46009A0023013200929A463B68002B31
:101EA00059D0FFF73DFE5648FFF782FE0098FFF736
:101EB0004FFE5448FFF77CFE012292445046FFF744
:101EC00047FE5148FFF774FE3B681868FFF770FE45
:101ED0004E48FFF785FE4E48FEF73AFD4D4A4E4C00
:101EE0005B469146236042464B461A704B4B20CFCF
:101EF00042461A605A609A60DA601A616B68002B79
:101F000000D09847EB689847AB68002B00D0984703
:101F1000FFF7F6FE4A461378002B39D04048FFF70A
:101F200047FE404B1868FFF713FE3F48FFF740FE9F
:101F300023685B4509D95D46306829780368013517
:101F40009B68984723689D42F6D33848FFF748FEC0
:101F50003B68002BA5D1019B80CB0193002F98D12A
:101F6000FFF7DEFD0F48FFF73BFE3148FFF720FE8D
:101F70001F4A1378002B0FD12E48FFF731FE1C4B60
:101F800003B018783CBC90469946A246AB46F0BDDB
:101F90002948FFF725FE81E72848FFF721FEEEE7F5
:101FA00040100020F8620008345900085059000819
:101FB0005459000868590008785900088C590008DD
:101FC000A4590008B8590008C4590008D859000895
:101FD000E0590008F4590008005A0008145A000893
:101FE0002C5A0008405A0008585A00086C5A000839
:101FF00014100020F05A0008605B00084410002014
:10200000845A0008945A0008985A00089C5A0008FC
:10201000204E00000C100020101000202C1000207A
:10202000A05A000808100020B85A0008BC5A00083E
:10203000D45A0008CC5A0008C05A0008E45A0008D4
:10204000F8B5434EB3699C68651C281CFEF750FC2C
:10205000011B071C4B4259410120FFF7E1FD0028FD
:1020600000D0F8BDB36902209968691A4B42594102
:10207000FFF7D6FD0028F4D1381CFEF739FC291AE9
:102080004B4259410320FFF7CBFD0028E9D1B3694A
:1020900004209968091B4B425941FFF7C1FD0028F4
:1020A000DFD172B6B3699A6802329A6062B6B369D8
:1020B000A71C99680520C91B4B425941FFF7B0FD89
:1020C0000028CED1281CFEF713FC011B4B425941BE
:1020D0000620FFF7A5FD0028C3D1B3690720996842
:1020E000791A4F427941FFF79BFD0028B9D1B369B6
:1020F0000820196C691A4B425941FFF791FD0028DD
:10210000AFD1E71C381CFEF7F3FB291A4D42694199
:102110000920FFF785FD0028A3D1B3690A2099683B
:10212000791A4B425941FFF77BFD002899D1B369D9
:102130000B20196C791A4F427941FFF771FD002885
:1021400000D08EE772B6B3699C601C6462B688E703
:10215000D0090020C046C046C046C046C046C04662
:10216000F0B5474680B4274D274EAB6998279A684B
:10217000264B82B09846264B7F000093391C43467D
:102180007068043AFEF7A4FBAB69224C9A68224BB4
:102190006060391C009330684346053AFEF798FBAF
:1021A000AB6920609A681D4B391C00933069434627
:1021B000013AFEF78DFBAB6920619A68184BF06815
:1021C0000093023A391C4346FEF782FBE06072B688
:1021D000AB69B0689A68134B033A0093391C4346C5
:1021E000FEF74EFBA06062B6A068FEF799FBFFF712
:1021F00087FD0D490120FFF72BFD02B004BC90467E
:10220000F0BDC046D009002010590008F122000896
:10221000805B00082C100020945B0008845B0008A1
:10222000885B00088C5B0008905B0008C046C046D5
:10223000F0B5474680B4244D244EAB6998279A6880
:10224000234B82B09846234B7F00391C30680093A3
:10225000053A4346FEF73CFBAB691F4C9A681F4B9F
:102260002060391C70680093043A4346FEF730FB47
:10227000AB6960609A681A4B391CB0680093033AE6
:102280004346FEF725FBAB69A0609A68154B391CE5
:10229000F0680093023A4346FEF71AFBAB69391C1B
:1022A0009A68114BE060013A306900934346FEF7AB
:1022B0000FFB2061FFF724FD0C490120FFF7C8FC4C
:1022C00002B004BC9046F0BDD009002010590008AF
:1022D000F1220008945B00082C100020805B0008AD
:1022E0008C5B0008885B0008845B0008905B00083A
:1022F00008B50078FFF784FC002008BDC046C04642
:1023000038B5FFF745FD1B4D1B48EC68FEF720FB79
:10231000194B0120E118194BE218FFF7C1FC002806
:1023200000D038BD1648EC68FEF712FB144B0220B3
:10233000E118144BE218FFF7B3FC0028F1D1124862
:10234000EC68FEF705FB104B0320E1180F4BE21879
:10235000FFF7A6FC0028E4D1ED68094BEC18201C1F
:10236000FEF7FEFA074B211CEA180420FFF798FC41
:10237000D7E7C046C009002083050000840500009F
:102380001027000011270000A0860100A18601008F
:1023900008B502480021FEF7E3FB08BD0008002055
:1023A00008B502480021FEF7DBFB08BD000800204D
:1023B00008B502480021FEF7D3FB08BD0008002045
:1023C00000B587B003A80021FEF7CAFB03A80021CF
:1023D000FEF7E6FB059B0120591E0B43D90FFFF7C3
:1023E0001FFC002801D007B000BD2A4B98219B6933
:1023F00049009A6803AB0093274B013A1868274BB2
:10240000FEF766FA264B186003A8FEF7F1FB059B62
:102410000220591E0B43D90FFFF702FC0028E2D11E
:1024200072B6059B002B30DDFEF7EAF962B6059B1C
:102430000320D917C91AC90FFFF7F2FB0028D2D120
:102440000599042001394B425941FFF7E9FB002867
:10245000C9D172B6059B002B13DDFEF7D1F962B628
:10246000059B0320D917C91AC90FFFF7D9FB00280C
:10247000B9D10599052001394B425941FFF7D0FBED
:10248000B1E703A8FEF7FCFBE7E703A8FEF7F8FBBC
:10249000CAE7C046D009002010590008B12400083E
:1024A0002C100020C046C046C046C046C046C046AC
:1024B00008B572B68368002B04DDFEF7A1F962B699
:1024C000002008BDFEF7DCFBF7E7C046C046C0466B
:1024D00010B5044C201CFEF78BFB201CFEF7B8FB4C
:1024E000002010BD00080020C046C046C046C046BF
:1024F00010B5041C0348FEF77BFB2078FFF780FB38
:10250000002010BD00080020C046C046C046C0469E
:1025100008B50648FEF71CFA72B60548FEF7B0FB90
:10252000FEF76EF962B6002008BDC04688130000B1
:1025300000080020C046C046C046C046C046C0464F
:10254000F0B54F464646C0B43D4C3E4E23683E4F24
:102550009946B36983B09A683C4B98210532009341
:102560004900984648463B1CFEF7B2F9B369384D1E
:102570009A68384B982128600132606800934900BE
:102580003B1CFEF7A5F9B36998219A68324B686045
:102590000332A068009349003B1CFEF799F9B36928
:1025A00098219A682D4BA8600432E0680093490096
:1025B0003B1CFEF78DF9B36998219A68284B4900B6
:1025C0000232E860206900933B1CFEF781F9254C3C
:1025D0002861201CFEF73CFB201CFEF739FB201C69
:1025E000FEF736FB201CFEF733FB201CFEF730FB0A
:1025F000FFF786FB01201C49FFF72AFB00281AD1B0
:10260000B36998219A6843460093053248464900C9
:102610003B1CFEF75DF9286072B60221201CFEF714
:1026200047FB62B6FFF76CFBA168022001394B4201
:102630005941FFF7F5FA03B00CBC90469946F0BD3E
:1026400010590008D0090020F1240008845B00081C
:102650002C100020885B00088C5B0008805B000861
:10266000945B000800080020905B0008C046C0464C
:1026700010B51E4B82B09B6998219A680023009385
:102680001B4B0132186849001A4BFEF721F91A4C0E
:102690001A4B211C1860201CFEF72AFB2168012020
:1026A000091B4B425941FFF7BBFA002801D002B089
:1026B00010BDA16802204B425941FFF7B1FA002832
:1026C000F5D1211C201CFEF713FB21680320091BF8
:1026D0004B425941FFF7A4FA0028E8D1A168042031
:1026E0004B425941FFF79CFAE1E7C046D009002070
:1026F00010590008D1240008000800202C100020E8
:1027000070B5434C002182B0201CFEF799FA411CA1
:102710004B4259410120FFF783FA002801D002B053
:1027200070BD21680220091B4B425941FFF778FA1E
:102730000028F4D1A16803204B425941FFF770FAF9
:102740000028ECD1334B98219B6949009A68324BA1
:10275000013A00901868314BFEF7BAF8304B314916
:102760001860201CFEF76CFA051CFFF7C9FA6942D5
:1027700069410420FFF754FA0028D0D121680520D0
:10278000091B4B425941FFF74BFA0028C7D1A168FA
:1027900006204B425941FFF743FA0028BFD1FFF70B
:1027A000F7FA214B4125DE68281CFFF729FA1D495D
:1027B000201CFEF745FA411C4B4259410720FFF708
:1027C0002FFA0028ABD121680820091B4B42594140
:1027D000FFF726FA0028A2D1A16809204B425941EF
:1027E000FFF71EFA00289AD10135EDB2462DDBD154
:1027F0000A200E49FFF72CFA002800D08FE70C4B77
:102800000B20F1180B4BF218FFF74AFA87E7C04686
:1028100000080020D00900201059000811250008E8
:102820002C10002050C30000C0090020905B00085D
:1028300090D0030084D20300C046C046C046C046C4
:10284000F0B5194B194E9B6998279D68184B83B0BA
:102850007F006A1C391C30680093164BFEF738F86D
:10286000154C164B2060AA1C391C70680093144B41
:10287000FEF72EF8134BEA1C391C6060B068009319
:10288000114BFEF725F8A060104C201CFEF778FBDA
:10289000201CFEF775FBFFF733FA0D490120FFF707
:1028A000D7F903B0F0BDC046D00900201059000888
:1028B000845B0008512900082C1000208C5B000864
:1028C00021290008885B0008E12800082C08002066
:1028D000105D0008C046C046C046C046C046C0465F
:1028E00010B5041C0448FEF7A3FA2078FFF788F916
:1028F000FEF7BEFA002010BD1C080020C046C046EE
:1029000010B5041C0448FEF793FA2078FFF778F915
:10291000FEF7AEFA002010BD0C080020C046C046ED
:1029200010B5041C0648FEF783FA0648FEF790FB34
:102930002078FFF765F9FEF79BFA002010BDC0462E
:102940000C0800202C080020C046C046C046C046E7
:1029500010B5041C0948FEF76BFA0948FEF768FA3F
:10296000012149420748FEF7A3FB2078FFF748F909
:10297000FEF77EFAFEF77CFA002010BD1C0800204E
:102980000C0800202C080020C046C046C046C046A7
:1029900008B50548FEF7ECFA0448FEF7D9F90448F3
:1029A000FEF7D6F908BDC0462C0800200C08002010
:1029B0001C080020C046C046C046C046C046C046AF
:1029C00008B50348FEF7D4FA0248FEF7C1F908BD7E
:1029D0002C0800200C080020C046C046C046C04657
:1029E00008B50348FEF7C4FA0248FEF7B1F908BD7E
:1029F0002C0800200C080020C046C046C046C04637
:102A000008B50248FEF7A4F908BDC0460C0800202E
:102A100008B50348FEF79CF90248FEF799F908BD8E
:102A20000C0800201C080020C046C046C046C04616
:102A300008B50348FEF78CF90248FEF789F908BD8E
:102A40000C0800201C080020C046C046C046C046F6
:102A500008B50248FEF77CF908BDC0460C08002006
:102A600008B50248FEF774F908BDC0460C080020FE
:102A7000F0B5474680B4224B224E9B6998279D684B
:102A8000214B82B09846214B7F006A1C391C30686C
:102A900000934346FDF71CFF1D4C1E4B2060AA1CF3
:102AA000391C706800934346FDF712FF1A4B6060B3
:102AB000EA1C391CB06800934346FDF709FF174B29
:102AC000A0602A1D391CF06800934346FDF700FF03
:102AD000134B6A1D391CE060306900934346FDF7D3
:102AE000F7FE20610F48FEF783FAFFF709F90E4958
:102AF0000120FFF7ADF802B004BC9046F0BDC0461F
:102B0000D00900201059000821290008945B000812
:102B10002C100020805B00088C5B0008885B00089C
:102B2000845B00082C080020905B0008C046C0466B
:102B3000F0B5474680B42A4B2A4E9B6998279D687A
:102B4000294B82B09846294B7F006A1C0093391CA0
:102B500043463068FDF7BCFE254C264B2060AA1C7E
:102B60000093391C43467068FDF7B2FE224B60604B
:102B7000EA1C0093391C4346B068FDF7A9FE1F4BC1
:102B8000A0602A1D0093391C4346F068FDF7A0FEA3
:102B90001B4BE0606A1D00933069391C4346FDF70A
:102BA00097FE206172B6174C201CFEF7F9F9201C25
:102BB000FEF7F6F9201CFEF7F3F9201CFEF7F0F9FA
:102BC000201CFEF7EDF9FDF71BFE62B6FFF798F843
:102BD0000D490120FFF73CF802B004BC9046F0BD5F
:102BE000D00900201059000821290008945B000832
:102BF0002C100020805B00088C5B0008885B0008BC
:102C0000845B00082C080020905B0008C046C0468A
:102C1000F0B5474680B4294E82B0B36928489F6812
:102C2000FEF706F9274B284D9846284B98217A1C29
:102C30000093490043462868FDF74AFE244C254B83
:102C400098212060BA1C0093490043466868FDF74C
:102C50003FFE214B98216060FA1C009349004346D7
:102C6000A868FDF735FE1D4B9821A0603A1D009322
:102C700049004346E868FDF72BFE194B98217A1D61
:102C80004900E060009328694346FDF721FE20617A
:102C9000FEF7EEF8FFF734F8B36901209968CF1B0F
:102CA00079427941FEF7BCFF002803D102200D498B
:102CB000FEF7CEFF02B004BC9046F0BDD009002064
:102CC0000C0800200129000810590008945B000836
:102CD0002C100020805B00088C5B0008885B0008DB
:102CE000845B0008905B0008C046C046C046C046F2
:102CF00070B5264D264CAB69201C9E68FEF7A0F8E7
:102D0000011C0120FEF78CFF002800D070BD201CA4
:102D1000FEF796F8414241410220FEF781FF00286C
:102D2000F4D172B6FEF7D4F862B621680320091B0D
:102D30004B425941FEF774FF0028E7D1A1680420F7
:102D40004B425941FEF76CFF0028DFD1AB690520EB
:102D50009968891B4E427141FEF762FF0028D5D168
:102D6000201CFEF765F8FEF7DBF821680620091B3A
:102D70004B425941FEF754FF0028C7D1A1680720F4
:102D80004B425941FEF74CFFC0E7C046D009002036
:102D90000C080020C046C046C046C046C046C046DB
:102DA000F0B55F4656464D464446F0B4854C864ED7
:102DB000A36985B09F6898217B1C9846BB1C9A46E6
:102DC000336849000293814B42469B46804B0298F0
:102DD00000935B46FDF77CFD76687E4D03967E4B47
:102DE0007E4E98212860490000935246331C039878
:102DF000FDF76EFD7A4B6860181C9946FEF718F8CF
:102E0000A36901209968C91B4B425941FEF708FF8D
:102E1000002806D005B03CBC90469946A246AB4679
:102E2000F0BD7048FDF794FDA36902209968434600
:102E3000C91A4B425941FEF7F3FE0028EAD16A480D
:102E4000FDF7F6FFA369032099684346C91A4B4270
:102E50005941FEF7E5FE0028DCD16248FDF778FD18
:102E6000A369042099685346C91A4B425941FEF799
:102E7000D7FE0028CED1FDF7FBFFA3690520996896
:102E80004346C91A4B425941FEF7CAFE0028C1D138
:102E90005448FDF75DFDA369062099684346C91AA9
:102EA0004B425941FEF7BCFE0028B3D1FEF738F87B
:102EB000A36907209968C91B4B425941FEF7B0FE30
:102EC0000028A7D1FEF71CFF484B9821009349002A
:102ED00042465B460298FDF7FBFC454B9821286073
:102EE000490000935246331C0398FDF7F1FC6860DB
:102EF0004846FDF79DFFA36908209968C91B4B420E
:102F00005941FEF78DFE002800D083E73548FDF7D4
:102F10001FFDA369092099684346C91A4B425941CC
:102F2000FEF77EFE002800D074E72F48FDF780FFF3
:102F3000A3690A2099684346C91A4B425941FEF7D2
:102F40006FFE002800D065E72648FDF701FDA36964
:102F50000B2099685346C91A4B425941FEF760FE4F
:102F6000002800D056E772B6FDF7B2FF62B6A3693B
:102F70000C2099684346C91A4B425941FEF750FE4E
:102F8000002800D046E71748FDF7E2FCA3690D20B2
:102F900099684346C91A4B425941FEF741FE002841
:102FA00000D037E7FDF7BCFFA3690E209968C91B65
:102FB0004F427941FEF734FE002800D02AE7FEF7A1
:102FC0009FFE27E7D0090020105900082130000893
:102FD000885B00082C100020845B0008013000088A
:102FE0001C080020102700000C080020805B00084F
:102FF0008C5B0008C046C046C046C046C046C046BE
:1030000008B50548FDF7A4FC0448FDF711FFFDF7DE
:103010002FFF002008BDC046983A00000C08002091
:1030200008B50548FDF794FC0448FDF701FFFDF7DE
:103030001FFF002008BDC046881300001C080020A8
:10304000F0B5474680B482B0FEF7A2FE294D2A4B68
:103050002A4EDA68AB6990469A6898210027053AAB
:103060004900274B30680097FDF732FCAB69254CCF
:103070009A6898212060043A4900234B70680097B1
:10308000FDF726FCAB6998219A686060033A490015
:103090001E4BB0680097FDF71BFCAB6998219A683E
:1030A000A060023A49001A4BF0680097FDF710FC47
:1030B000AB6998219A68E0604900013A154B306984
:1030C0000097FDF705FC2061FEF71AFE012012496A
:1030D000FEF7BEFD002808D1104B0220191C104B32
:1030E00041441A1C4244FEF7DBFD02B004BC90468A
:1030F000F0BDC046D0090020C009002010590008CA
:10310000B13200082C100020613200083132000872
:1031100011320008E1310008905B0008F82A000035
:10312000FD2A0000C046C046C046C046C046C04654
:10313000F0B5474680B482B0FEF72AFE1E4D1F4B05
:103140001F4EDA68AB6990469A6898210027013AC9
:1031500049001C4B30680097FDF7BAFBAB691A4C6D
:103160009A6898212060023A4900184B70680097CD
:10317000FDF7AEFBAB6998219A6860604900033A9D
:10318000134BB0680097FDF7A3FBA060FEF7B8FDF6
:1031900001201049FEF75CFD002808D10E4B0220EB
:1031A000191C0E4B41441A1C4244FEF779FD02B033
:1031B00004BC9046F0BDC046D0090020C0090020E4
:1031C00010590008213300082C100020013300089A
:1031D000D1320008105D00081027000015270000FC
:1031E00008B50848FDF7B4FB0748FDF721FE0A20A3
:1031F000FEF79EFDFDF73CFE4120FEF701FD00209D
:1032000008BDC046881300001C080020C046C04608
:1032100008B5FA200001FDF79BFB1420FEF788FD9E
:103220004220FEF7EDFC002008BDC046C046C04667
:1032300008B5FA20C000FDF78BFB0648FDF7F8FD46
:103240000A20FEF775FDFDF713FE4320FEF7D8FCBC
:10325000002008BD1C080020C046C046C046C0462D
:1032600008B5FA208000FDF773FB0C48FDF7E0FD80
:103270001420FEF75DFD0A48FDF7DAFD0A20FEF78F
:1032800057FDFDF7F5FD0A20FEF752FDFDF7F0FDB5
:103290004420FEF7B5FC002008BDC0461C080020F5
:1032A0000C080020C046C046C046C046C046C046C6
:1032B00008B50648FDF7BCFD1E20FEF739FDFDF7F9
:1032C000D7FD4520FEF79CFC002008BD0C0800201F
:1032D00008B50848FDF7ACFD2820FEF729FDFDF7ED
:1032E000C7FD0A20FEF724FD4320FEF789FC0020DD
:1032F00008BDC0460C080020C046C046C046C046B7
:1033000008B5FA20C000FDF723FB2820FEF710FDCA
:103310004220FEF775FC002008BDC046C046C046EE
:1033200008B5FA200001FDF713FB0648FDF780FD04
:103330000A20FEF7FDFCFDF79BFD4120FEF760FC37
:10334000002008BD0C080020C046C046C046C0464C
:1033500010B5184B184A9B6910689A6882B098217A
:10336000013200934900154BFDF7B2FA144B186077
:10337000FEF70EF8446B211CFEF72AF8E0B2FEF7C8
:103380003FFCFEF705F8446B211CFEF721F8E0B284
:10339000FEF736FCFDF7FCFF446B211CFEF718F826
:1033A000E0B2FEF72DFC07490120FEF751FC02B008
:1033B00010BDC046D009002010590008D1330008C4
:1033C0002C100020105D0008C046C046C046C04614
:1033D00010B5041C4121FDF7BBFF201C4221FDF765
:1033E000B7FF201C4321FDF7B3FF002010BDC046EE
:1033F00008B5034803490522FDF7F2FF08BDC046A2
:1034000034080020180A0020C046C046C046C04606
:1034100070B5154D82B0696A012005394B4259419A
:10342000FEF7FEFB00281DD142240122211C281C8E
:103430005242FEF725F8414241410220FEF7F0FBDF
:1034400000280FD10134462CEFD101224121281C44
:103450005242FEF755F8414241410320FEF7E0FB9E
:10346000002803D002B070BD340800205821281C69
:103470000122FEF705F8411C4B4259410420FEF79A
:10348000CFFB0028EED172B65821281CFEF700F8B9
:1034900062B6411C4B4259410520FEF7C1FB002892
:1034A000E0D15821281C0122FEF72AF8411C4B428A
:1034B00059410620FEF7B4FB0028D3D172B658213B
:1034C000281CFEF725F862B6411C4B4259410720E3
:1034D000FEF7A6FB0028C5D172B6696A08204B42E8
:1034E0005941FEF79DFB62B60028BBD172B6A969AF
:1034F000092005394B425941FEF792FB62B600287C
:10350000B0D172B6AB68E9680A20C91A4B4259417A
:10351000FEF786FB62B605240028A3D1012201A98B
:10352000281C5242FEF734F8414241410B20FEF77D
:1035300077FB002800D095E70198013CC0B2FEF768
:103540005FFB002CEAD1A74C0C20211CFEF780FB6E
:10355000002800D086E701224721281C5242FDF7AF
:103560008FFF414241410D20FEF75AFB002800D059
:1035700078E7012201A9281C5242FEF709F84142CE
:1035800041410E20FEF74CFB002800D06AE7AB68F3
:1035900029680F20C91A4B425941FEF741FB002808
:1035A00000D05FE7EB6829681020C91A4B425941E7
:1035B000FEF736FB002800D054E701A9281C0122A1
:1035C000FDF7E6FF411C4B4259411120FEF728FB55
:1035D000002800D046E772B6281C01A9FDF7E0FFDD
:1035E00062B6411C4B4259411220FEF719FB0028DC
:1035F00000D037E772B6696A132005394B4259414A
:10360000FEF70EFB62B6002800D02BE772B6A96960
:1036100014204B425941FEF703FB62B6002800D04C
:1036200020E772B6AB68E9681520C91A4B425941C8
:10363000FEF7F6FA62B6002800D013E772B6412111
:10364000281CFDF725FF414241411620FEF7E8FA0C
:10365000002800D006E74221281CFDF719FF41424F
:1036600041411720FEF7DCFA002800D0FAE643219A
:10367000281CFDF70DFF414241411820FEF7D0FA0A
:10368000002800D0EEE64421281CFDF701FF41424E
:1036900041411920FEF7C4FA002800D0E2E6281CB8
:1036A0004521FDF7F5FE62B6414241411A20FEF781
:1036B000B7FA002800D0D5E6AB68E9681B20C91A24
:1036C0004B425941FEF7ACFA002800D0CAE6052665
:1036D00072B6281C01A9FDF763FF62B64142414161
:1036E0001C20FEF79DFA002800D0BBE60198013EA1
:1036F000C0B2FEF785FA002EEAD11D20211CFEF78C
:10370000A7FA002800D0ADE672B6696A1E20053916
:103710004B425941FEF784FA62B6002800D0A1E678
:1037200072B6A9691F204B425941FEF779FA62B679
:10373000002800D096E6AB68E9682020C91A4B4201
:103740005941FEF76DFA002800D08BE672B645218C
:10375000281CFDF7DDFE414241412120FEF760FAC1
:10376000002800D07EE64421281CFDF7D1FE41420E
:1037700041412220FEF754FA002800D072E643218E
:10378000281CFDF7C5FE414241412320FEF748FABF
:10379000002800D066E64221281CFDF7B9FE414210
:1037A00041412420FEF73CFA002800D05AE6281CAC
:1037B0004121FDF7ADFE62B6414241412520FEF7B1
:1037C0002FFA002800D04DE6AB68E9682620C91A18
:1037D0004B425941FEF724FA002800D042E6052664
:1037E00002E0C046905B000872B6281C01A9FDF7F4
:1037F000D7FE62B6414241412720FEF711FA002868
:1038000000D02FE60198013EC0B2FEF7F9F9002E74
:10381000EAD12820211CFEF71BFA002800D021E65F
:1038200072B6696A292005394B425941FEF7F8F909
:1038300062B6002800D015E672B6A9692A204B426C
:103840005941FEF7EDF962B6002800D00AE6AB68F0
:10385000E9682B20C91A4B425941FEF7E1F90028CB
:1038600000D0FFE5281CFDF7D3FD72B6696A2C2055
:1038700005394B425941FEF7D3F962B6002800D012
:10388000F0E572B6A9692D204B425941FEF7C8F9FF
:1038900062B6002800D0E5E572B6AB6829682E2034
:1038A000C91A4B425941FEF7BBF962B6002800D055
:1038B000D8E572B6EB6829682F20C91A4B425941E6
:1038C000FEF7AEF962B6CDE5C046C046C046C0467A
:1038D00008B501204042FDF713FC08BDC046C046B4
:1038E00008B501204042FDF70BFC08BDC046C046AC
:1038F00008B501204042FDF703FC08BDC046C046A4
:1039000008B500210548FDF75BFC0548FDF720F8E8
:1039100004480021FDF754FC002008BD5C0800208D
:103920008813000060080020C046C046C046C0465C
:1039300010B5041C0448FDF70BF8201C0121FDF70D
:103940001FFC002010BDC04688130000C046C046C2
:1039500010B51D4C88B0201C694601222460FDF77B
:10396000AFFB201C04A90222FDF7AAFB216801205D
:10397000091B4B1E9941FEF753F9002801D008B0EE
:1039800010BD201C6946FDF7ABFB21680220091B16
:103990004B1E9941FEF744F90028F0D1201C04A9E0
:1039A000FDF79EFB216803200C1B61426141FEF77D
:1039B00037F90028E3D105480721FDF709FC044940
:1039C0000420FEF745F9DAE75C080020705F000884
:1039D000105D0008C046C046C046C046C046C0464E
:1039E00008B54320FEF70CF908BDC046C046C046E6
:1039F00008B54220FEF704F908BDC046C046C046DF
:103A000008B54120FEF7FCF808BDC046C046C046D8
:103A100008B5012000214042FDF73AFC41424141F6
:103A20000120FEF7FDF8002800D008BD012000218C
:103A30004042FDF74DFC414241410220FEF7F0F8C3
:103A40000028F2D1012000214042FDF761FC4142F3
:103A500041410320FEF7E4F80028E6D101200A21C5
:103A60004042FDF715FC414241410420FEF7D8F8E1
:103A70000028DAD101200A214042FDF729FC414209
:103A800041410520FEF7CCF80028CED101200A21C3
:103A90004042FDF73DFC414241410620FEF7C0F89F
:103AA000C3E7C046C046C046C046C046C046C04642
:103AB000F0B557464E464546E0B48AB00520FDF7BE
:103AC0002FFB01204042FDF79BFB411E4B42594119
:103AD0000120FEF7A5F8002805D00AB01CBC9046CE
:103AE0009946A246F0BD01204042FDF789FB011F27
:103AF0004B4259410220FEF793F80028EDD10120F6
:103B00004042FDF7FDFA414241410320FEF788F8AB
:103B10000028E2D1FEF73CF96E4B6F4D1968AB6996
:103B20008A466E499A686E4E88469821F768013A2F
:103B30004900009350464346FCF7CAFE694C20609A
:103B400001204042FDF75CFB674A684B8146B9188B
:103B50000420FA18FEF7A4F80028BED1494601391E
:103B60004B4259410520FEF75BF80028B5D10120F2
:103B70004042FDF7C5FA414241410620FEF750F8A8
:103B80000028AAD1FEF7BCF80520FDF7C9FA0120EC
:103B90004042FDF74DFB411F4B4259410720FEF7C4
:103BA0003FF8002899D101204042FDF7A9FA41428F
:103BB00041410820FEF734F8002800D08DE7FEF7D9
:103BC000E7F8AB6998219A68F768013A49000093D1
:103BD00050464346FCF77CFE206001204042FDF742
:103BE00027FB414A414B8046B9180920FA18FEF7D5
:103BF00057F8002800D070E7414601394B4259413F
:103C00000A20FEF70DF8002800D066E701204042A8
:103C1000FDF776FA414241410B20FEF701F80028FA
:103C200000D05AE7FEF76CF83149324F0A1C116098
:103C30008846381C02A901223F60FDF741FA06A917
:103C400004224046FDF73CFAFEF7A2F8AB69982142
:103C50009A68294BF668013A490000935046274B71
:103C6000FCF736FE20600520FDF7FAFA1E4B0C200B
:103C7000F1181E4BF218FEF713F8002800D02CE7BD
:103C800001204042FDF73CFA414241410D20FDF741
:103C9000C7FF002800D020E7FEF732F8381C02A941
:103CA000FDF71EFA404606A9FDF71AFA39680E20FC
:103CB000C91B4F427941FDF7B3FF002800D00CE744
:103CC000424611680F20891A4B425941FDF7A8FF5F
:103CD00003E7C04610590008D00900203139000818
:103CE000C00900202C100020881300007C15000063
:103CF000600800205C080020845B0008013900088F
:103D0000F0B583B0FDF704FE01A90020FDF7B0FE79
:103D100010210020FDF72CFE011C041C4B1E9941B4
:103D20000120FDF77DFF002801D003B0F0BD201C6D
:103D3000FDF75EFE7C490020FDF71AFE414241413D
:103D40000220FDF76DFF0028EFD1784C01A9201C5F
:103D5000FDF78EFE1021201CFDF70AFE1021061C27
:103D6000201CFDF705FE1021051C201CFDF700FEA0
:103D7000071C301CFDF73CFE281CFDF739FE381CE3
:103D8000FDF736FE6946201CFDF772FE411E4B42D0
:103D900059410320FDF744FF0028C6D11021201C03
:103DA000FDF7E6FD1021051C201CFDF7E1FD1021AB
:103DB000061C201CFDF7DCFDFDF71AFE301CFDF78C
:103DC00017FE281CFDF714FE6946201CFDF750FE67
:103DD000411E4B4259410420FDF722FF0028A4D187
:103DE0001121201CFDF7C4FD1021051C201CFDF72E
:103DF000BFFD061C281CFDF7FBFD6946201CFDF7D6
:103E000037FE811E4B4259410520FDF709FF00286E
:103E100000D08AE71021201CFDF7AAFD6946051C89
:103E2000201CFDF725FE0121012806D06946201C33
:103E3000FDF71EFE811E4B4259410620FDF7F0FEA4
:103E4000002800D071E7301CFDF7D2FD281CFDF7DB
:103E5000CFFD6946201CFDF70BFE411E4B42594128
:103E60000720FDF7DDFE002800D05EE71021201CB2
:103E7000FDF77EFD1021061C201CFDF779FD051CB9
:103E8000301CFDF7B5FD6946201CFDF7F1FD811ED4
:103E90004B4259410820FDF7C3FE002800D044E7FB
:103EA0002021201CFDF764FDFDF7A2FD281CFDF775
:103EB0009FFD6946201CFDF7DBFD411E4B42594129
:103EC0000920FDF7ADFE002800D02EE76946201C32
:103ED000FDF7CEFD0099201CFDF74AFD6946051C43
:103EE000201CFDF7C5FD414241410A20FDF798FE27
:103EF000002800D019E7281CFDF77AFD6946201C30
:103F0000FDF7B6FD411E4B4259410B20FDF788FEDF
:103F1000002800D009E7019B00990C20C91A4B42E8
:103F20005941FDF77DFE00E700FFFFFF581000201C
:103F300008B5BE2202480349D200FDF709FD08BDBD
:103F400058100020180A0020C046C046C046C0468F
:103F500000207047C046C046C046C046C046C04666
:103F600008B59821024849000022FDF7A1FD08BDCF
:103F700064080020C046C046C046C046C046C04691
:103F8000F8B52C4B2C4C1E68201C311C0522FDF76B
:103F900097FD0525201CFDF7A3FD011C481E81414E
:103FA0000120FDF73DFE002835D1013D002DF1D166
:103FB000201CFDF795FD414241410220FDF730FEF6
:103FC000002828D11D4D201C2F1C1037311CFDF757
:103FD00097FDBD4206D040CD201C311CFDF790FD61
:103FE000BD42F8D10525201CFDF77AFD011C481EB5
:103FF00081410320FDF714FE00280CD1013D002D66
:10400000F1D1201CFDF76CFD414241410420FDF738
:1040100007FE002800D0F8BD201C1021084AFDF73B
:1040200047FD201CFDF75CFD414241410520FDF7A5
:10403000F7FDF0E710590008640800201459000843
:10404000513F0008C046C046C046C046C046C046B4
:1040500038B5051CFCF75CFD0024431B5A42534154
:104060001C43FCF765FD0028F7D1201C38BDC04675
:1040700010B5434B82B09B6998219A68414B490027
:104080000093013A404B4148FCF7FAFC817F041C45
:1040900001394B4259410120FDF7C2FD002801D0F2
:1040A00002B010BD201CFCF7BBFCA17F022002392E
:1040B0004B425941FDF7B4FD0028F1D1201CFCF71B
:1040C000B7FCA17F032001394B425941FDF7A8FD00
:1040D0000028E5D1201CFFF7BBFF011C0420FDF7E1
:1040E0009FFD0028DCD1201CFFF7B2FF011C05203A
:1040F000FDF796FD0028D3D1201CFCF799FCA17F89
:1041000006204B425941FDF78BFD0028C8D1217F85
:1041100007204B425941FDF783FD0028C0D1201CE8
:10412000FFF796FF011C0820FDF77AFD0028B7D1A4
:10413000201CFFF78DFF011C0920FDF771FD0028F1
:10414000AED11348FCF704FC217F0A200E394B4204
:104150005941FDF765FD0028A2D1201CFFF778FF2B
:10416000011C0B20FDF75CFD002899D1201CFFF7F6
:104170006FFF414241410C20FDF752FD90E7C046E0
:10418000D0090020845B0008A141000888100020AD
:1041900088130000C046C046C046C046C046C04660
:1041A00008B50078FDF72CFD002008BDC046C046CC
:1041B00008B5BE2202480349D200FDF7C9FB08BD7D
:1041C00088100020180A0020C046C046C046C046DD
:1041D00008B5BE2202480349D200FDF7B9FB08BD6D
:1041E00088100020180A0020C046C046C046C046BD
:1041F000F8B5334B334C9B69261C9F68324D103603
:1042000002CC281CFDF77CFCB442F9D12F4E791E5C
:10421000321C2F4B281CFCF753FC2E4CB91E20607F
:10422000321C2D4B281CFCF74BFCF91E6060321C25
:104230002A4B281CFCF744FC391FA060321C284B79
:10424000281CFCF73DFC791FE060264B281C321C23
:10425000FCF736FC236820610021002B0AD063683C
:10426000002B07D0A368002B04D0E368002B01D0FB
:10427000414241410120FDF7D3FC002800D0F8BDA8
:10428000FDF73EFD02201849FDF7E2FC0028F6D1BB
:104290000424281CFDF724FC011C481E8141032036
:1042A000FDF7BEFC0028EAD1013C002CF1D1281C0E
:1042B000FDF716FC414241410420FDF7B1FCDEE769
:1042C000D00900201059000878100020A1410008F2
:1042D000845B00082C100020885B00088C5B0008C1
:1042E000805B0008945B000850600008C046C04630
:1042F00008B59821024849000022FDF7D9FB08BD06
:1043000078100020C046C046C046C046C046C046E1
:10431000F0B5474680B4364B364C84B09B6903A950
:10432000201C9E68FDF7A4FB334F344B9821721E6E
:10433000009349003B1C201CFCF7A2FB304D314B85
:104340009821B21E286049000093201C3B1CFCF7FA
:1043500097FB02A96860201CFDF78AFB0299201CCC
:10436000FDF706FB284B982149008046F21E00937A
:10437000201C3B1CFCF784FBA8604046FDF738FB83
:104380002B680021002B05D06B68002B02D0AB6896
:10439000002B25D00120FDF743FC002803D004B0FA
:1043A00004BC9046F0BDFDF7ABFC02201749FDF7B9
:1043B0004FFC0028F3D102A9201CFDF759FB411E38
:1043C0004B4259410320FDF72BFC0028E7D1039B0A
:1043D00002990420C91A4B425941FDF721FCDEE73E
:1043E000EB68002BD6D129694B425941D2E7C04630
:1043F000D009002088100020A1410008845B00083B
:104400002C100020885B00088C5B000858600008B6
:104410007047C046C046C046C046C046C046C046BB
:1044200008B503480021034AFDF7BAF9002008BD8A
:1044300070080020204E0000C046C046C046C0465E
:1044400000B5064B83B0196800230093044804228A
:10445000044BFDF77DF903B000BDC04610590008BC
:104460007008002011440008C046C046C046C0463F
:1044700008B503480349FDF713F9002008BDC046FD
:1044800094080020204E0000C046C046C046C046EA
:1044900000B5064B83B0196800230093044804223A
:1044A000044BFDF7ADF803B000BDC046105900083D
:1044B0009408002011440008C046C046C046C046CB
:1044C00070B582B072B66C4D00216A69AB699A42D0
:1044D00000D1C9E00120FDF7A3FB62B6412400280A
:1044E0002CD1211C01220134281C5242E4B2FDF7D8
:1044F00057F9452CF5D172B6A96802204B425941B3
:10450000FDF78EFB62B60424002817D172B6281C72
:10451000FDF76EF962B6C0B2013CFDF771FB002CED
:10452000F4D172B66A69AB6900219A4200D19FE06A
:104530000320FDF775FB62B6002801D002B070BD04
:1045400004204E49FDF784FB0028F7D172B6281CE1
:10455000FDF74EF9C11C4B4259410520FDF760FBA8
:1045600062B60028EAD1464E00237468281C211C3C
:104570000822FDF765F9011F4B4259410620FDF75E
:104580004FFB0028DAD172B6A96807204B42594187
:10459000FDF746FB62B60028D0D13A4A33689269EB
:1045A00098219268490000900132181C364BFCF7A4
:1045B0008FF9364B186072B6EB6829690820C91A62
:1045C000AB68C91A04394B425941FDF729FB62B661
:1045D0000028B3D1FDF794FB72B6281CFDF7C8F88C
:1045E00062B672B6EB6829690920C91AAB68C91AA4
:1045F0004B425941FDF714FB62B6002800D09DE7FD
:104600000023211C0222281CFDF71AF9811E4B42AF
:1046100059410A20FDF704FB031E00D08EE7211C40
:10462000281C0222FDF70CF9811E4B4259410B2038
:10463000FDF7F6FA002800D080E772B6A9680C20D2
:104640004B425941FDF7ECFA62B6002800D075E7FD
:10465000281C00210A22FDF7A3F8411C4B425941B6
:104660000D20FDF7DDFA69E7A9684B1E994131E796
:10467000A9684B1E99415BE7700800205060000854
:1046800010590008D0090020214400082C100020F7
:1046900070B582B072B6724D0120A9684B42594183
:1046A000FDF7BEFA62B6002817D172B64124211C6C
:1046B0000134281CE4B2FCF7CBFF452CF7D162B6DD
:1046C00072B66A69AB6900219A4200D1C4E0022047
:1046D000FDF7A6FA62B6002801D002B070BD72B62E
:1046E0000021281CFCF7B4FF011D4B425941032057
:1046F000FDF796FA62B604240028EED10121494262
:10470000281CFCF7CDFF013CC0B2FDF779FA002C64
:10471000F4D172B6A96804204B425941FDF780FAE2
:1047200062B60028D9D105204E49FDF791FA00283C
:10473000D3D172B64124211C0134281CE4B2FCF709
:1047400087FF452CF7D162B6474E00237168281CBD
:104750000822FCF7C5FF011F4B4259410620FDF717
:104760005FFA0028B9D172B6A96807204B425941B7
:10477000FDF756FA62B60028AFD172B64124211C6B
:104780000134281CE4B2FCF763FF452CF7D162B674
:1047900074680023211C281C0222FCF7A1FF811E43
:1047A0004B4259410820FDF73BFA002800D094E71E
:1047B000211C0023281C0222FCF792FF811E4B4281
:1047C00059410920FDF72CFA002800D085E772B680
:1047D000A9680A204B425941FDF722FA62B6002827
:1047E00000D07AE772B60021281CFCF731FF281CA4
:1047F000FCF716FF62B672B6A9680B204B4259410E
:10480000FDF70EFA031C62B6002800D065E7174AD0
:104810009821926930689268490000930132144BE4
:10482000FCF756F8134B186072B6A9680C204B427F
:104830005941FDF7F5F962B6002800D04DE7FDF7C4
:104840005FFA281C0A21FCF72BFF411C4B425941FF
:104850000D20FDF7E5F940E7A9684B1E994136E7C1
:10486000940800205060000810590008D00900206A
:10487000714400082C100020C046C046C046C04607
:104880007047C046C046C046C046C046C046C04647
:104890007047C046C046C046C046C046C046C04637
:1048A00010B52E48FDF784F9CA204000FDF750F9F5
:1048B0002B4C201CFDF794F92A48FDF779F9482084
:1048C000FDF746F9201CFDF78BF92748FDF770F935
:1048D0001420FDF73DF9201CFDF782F92348FDF770
:1048E00067F90C20FDF734F9201CFDF779F9204811
:1048F000FDF75EF90420FDF72BF9201CFDF770F998
:104900001C48FDF755F91020FDF722F9201CFDF792
:1049100067F91948FDF74CF91020FDF719F9201C2B
:10492000FDF75EF91548FDF743F90820FDF710F98A
:10493000201CFDF755F91248FDF73AF92420FDF740
:1049400007F9201CFDF74CF90E48FDF731F9282036
:10495000FDF7FEF8201CFDF743F910BDE0610008EB
:10496000F0610008F8610008086200081862000899
:10497000286200083862000848620008586200088F
:104980006862000878620008C046C046C046C0465B
:1049900070B5FDF7FDF9FA208000FDF709FA124C19
:1049A000124E0025201CFCF743FAFCF761FA201C8C
:1049B000FCF73EFAFCF75CFA201CFCF739FAFCF72E
:1049C00057FA201CFCF734FAFCF752FA3378013519
:1049D000002BE7D00648FDF7EBF8A800FDF7B8F884
:1049E0000448FDF7FDF870BDBC1000200D1000203C
:1049F0008862000898620008C046C046C046C046AB
:104A000008B50248FCF7A4F908BDC046BC10002058
:104A100070B5084CA3695B7F5A0708D4064E04257D
:104A2000301CFCF7E5F8A3695B7F1D42F8D000203D
:104A300070BDC046D0090020F0100020C046C0461E
:104A400070B5FDF7A5F9FA208000FDF7B1F9144C17
:104A5000144E0025201CFCF7CBF8201CFCF7F8F8BE
:104A6000201CFCF7C5F8201CFCF7F2F8201CFCF712
:104A7000BFF8201CFCF7ECF8201CFCF7B9F8201C50
:104A8000FCF7E6F833780135002BE3D00648FDF754
:104A90008FF8A800FDF75CF80448FDF7A1F870BD99
:104AA000F01000200D10002088620008A8620008A5
:104AB00008B502480121FCF753F808BDF0100020AA
:104AC00008B502480021FCF74BF808BDF0100020A3
:104AD000F0B5474680B4FDF75BF9FA208000FDF79A
:104AE00067F9154A154E164D164F0024904672B6BA
:104AF0000121301C2A1C0023FBF732FD12492A1C1D
:104B00000023381CFBF72CFD301CFBF749FD381C3B
:104B1000FBF746FD62B6424613780134002BE6D01F
:104B20000A48FDF745F86000FDF712F80848FDF760
:104B300057F804BC9046F0BD0D100020CC100020AA
:104B400091480008A8100020102700008862000883
:104B5000B8620008C046C046C046C046C046C0460F
:104B600070B5234C82B0002322491022201C0093F0
:104B7000FCF746FDFDF70CF9FA208000FDF718F967
:104B80001D4E002572B60021201CFCF761FD201C83
:104B90000121FCF75DFD201C0221FCF759FD201CC2
:104BA0000321FCF755FD62B601214942201CFCF7A8
:104BB00077FD01214942201CFCF772FD0121494289
:104BC000201CFCF76DFD0121201C4942FCF768FD0B
:104BD00033780135002BD5D00848FCF7E9FFA80051
:104BE000FCF7B6FF0648FCF7FBFF02B070BDC046FD
:104BF000FC100020E01000200D100020886200084A
:104C0000C4620008C046C046C046C046C046C04652
:104C1000F0B54F464646C0B4164B83B01A68164BE3
:104C200091469B6900249E68FDF7B2F8FA20800047
:104C3000FDF7BEF8114D124F0136A04642469821AD
:104C400000922B1C48464900321CFBF741FE3B7882
:104C50000134002BF2D00B48FCF7AAFF201CFCF714
:104C600077FF0948FCF7BCFF03B00CBC904699469F
:104C7000F0BDC04610590008D00900208148000846
:104C80000D10002088620008D0620008C046C046AF
:104C9000F0B54F464646C0B485B000230393FDF7F8
:104CA00077F8274D98235B009846AB69254E9A68A4
:104CB000254B03AF41463068013A99460097FBF710
:104CC00007FEAB69214C9A68206041464B467068EC
:104CD000013A0097FBF7FCFDAB6960609A684146BA
:104CE0004B46B068013A0097FBF7F2FDAB69A06054
:104CF0009A6841464B46F068013A0097FBF7E8FD99
:104D0000AB6941469A68E0604B46013A30690097CA
:104D1000FBF7DEFD20610E48FBF71AFEFCF7E0FF13
:104D2000FCF7EEFF0B48FCF743FF0398FCF710FF7E
:104D30000948FCF755FF05B00CBC90469946F0BDFC
:104D4000D009002010590008614D00082C100020E7
:104D5000A086010088620008DC620008C046C046E8
:104D600070B50A4E041C0425FBF70AFEFBF708FE8B
:104D7000FBF706FEFBF704FE236804332360B369E8
:104D80005B7F1D42F0D0002070BDC046D0090020DE
:104D9000F0B5474680B4354D354EAB6998219A68D9
:104DA000344B82B00027306805324900984600979E
:104DB000FBF78EFDAB69304C9A6898212060043275
:104DC0007068490043460097FBF782FDAB69982164
:104DD0009A6860600332B068490043460097FBF769
:104DE00077FDAB6998219A68A0600232F0684900AB
:104DF00043460097FBF76CFDAB6998219A68E06029
:104E000001324900434630690097FBF761FD20619C
:104E1000FCF7BEFFFA208000FCF7CAFF174D184EC2
:104E20000024281C0021FBF7BBFE33780134002B43
:104E3000F7D0FCF755FF0021281CFBF7B1FEFCF76B
:104E40005FFF1048FCF7B4FE201CFCF781FE0E4803
:104E5000FCF7AEFE600004196000FCF779FE0B4819
:104E6000FCF7BEFE02B004BC9046F0BDD0090020A5
:104E700010590008114A00082C100020F0100020E2
:104E80000D10002088620008E8620008DC6200085B
:104E9000F0B54F464646C0B4174B83B01A68174B5F
:104EA00091469B6900249E68FCF772FFFA208000FF
:104EB000FCF77EFF124D134F013EA046424698215B
:104EC0002B1C00924900321C4846FBF701FDFBF702
:104ED0008FFD3B780134002BF0D00B48FCF768FEC7
:104EE000201CFCF735FE0948FCF77AFE03B00CBC29
:104EF00090469946F0BDC04610590008D0090020E0
:104F0000814800080D10002088620008D062000867
:104F100070B5214B82B09B6998219A680023009359
:104F20001E4B0132490018681D4BFBF7D1FC1D4B8D
:104F3000041C1860FCF72CFFFA208000FCF738FFF7
:104F4000194E002572B60021201CFBF7F1FB201C36
:104F50000021FBF7EDFB201C0021FBF7E9FB201CE7
:104F60000021FBF7E5FB62B633780435002BE9D06E
:104F700072B60121201C4942FBF7DAFB62B6FCF74E
:104F8000BFFE0A48FCF714FE6800FCF7E1FD084884
:104F9000FCF726FE02B070BDD009002010590008B1
:104FA000E15100082C1000200D100020886200083C
:104FB000DC620008C046C046C046C046C046C04687
:104FC00070B5051CFCF7E4FEFA208000FCF7F0FE4B
:104FD000074E0024281C0121FCF7BAF9337801346C
:104FE000002BF7D0281C0021FCF7B2F9201C70BD63
:104FF0000D100020C046C046C046C046C046C04650
:10500000F0B54F464646C0B42A4D98235B009846FB
:10501000AB69294E9A6883B0002741463068013257
:10502000264B0097FBF754FCAB69254C9A68254B3F
:10503000206041467068023A99460097FBF748FCA9
:10504000AB6960609A6841464B46B068033A009786
:10505000FBF73EFCAB69A0609A6841464B46F0689E
:10506000043A0097FBF734FCAB6941469A68E0606C
:105070004B46053A30690097FBF72AFC206120680F
:10508000FFF79EFF041CFCF73BFE0F48FCF790FD6A
:10509000201CFCF75DFD0D48FCF78AFD6000FCF765
:1050A00057FD0B48FCF79CFD03B00CBC904699469D
:1050B000F0BDC046D009002010590008C1510008B9
:1050C0002C1000208148000888620008FC6200085B
:1050D000DC620008C046C046C046C046C046C04666
:1050E00010B5134B82B01868124B98219B69490088
:1050F0009A680023013200930F4BFBF7E9FB0F4B3B
:105100001860FFF75DFF041CFCF7FAFD0C48FCF784
:105110004FFD201CFCF71CFD0A48FCF749FD600010
:10512000FCF716FD0848FCF75BFD02B010BDC04659
:1051300010590008D0090020C15100082C1000208F
:1051400088620008FC620008DC620008C046C046B5
:1051500010B5134B82B01868124B98219B69490017
:105160009A680023013A00930F4BFBF7B1FB0F4BFA
:105170001860FFF725FF041CFCF7C2FD0C48FCF784
:1051800017FD201CFCF7E4FC0A48FCF711FD600049
:10519000FCF7DEFC0848FCF723FD02B010BDC0465A
:1051A00010590008D0090020C15100082C1000201F
:1051B00088620008FC620008DC620008C046C04645
:1051C00010B5FCF7E5F8446B211CFCF701F9002C45
:1051D000F7D1002010BDC046C046C046C046C046FC
:1051E00010B5064B9C6972B60220FBF769FA636A38
:1051F000002BF9D062B6002010BDC046D0090020B7
:1052000008B500F0B5F8054800F042F900F008F8DC
:1052100000F056F800F01CFB08BDC04660650008B1
:1052200008B500F035FA08BDC046C046C046C046C5
:1052300001230370002343607047C046C046C04648
:1052400008B50C30FCF74CFA08BDC046C046C04655
:1052500008B501230C305B42FCF742FA08BDC0469A
:1052600008B53030FCF7ECFA08BDC046C046C04671
:1052700008B5012330305B42FCF7E2FA08BDC046B6
:1052800008B50C30FCF70CFA08BDC046C046C04655
:1052900008B501210C304942FCF702FA08BDC046AE
:1052A00008B53030FCF77CFA08BDC046C046C046A1
:1052B00008B5012230305242FCF772FA08BDC046F0
:1052C00008B500F06DFA08BDC046C046C046C046ED
:1052D00030B50B1C0D49151C021C041C02C2426097
:1052E000211C012283B0027254310C301022009430
:1052F000FCF786F9201C211C2B1C30306431102255
:105300000094FCF725FA03B030BDC04630650008B4
:1053100010B5041C72B600F05BFA0223237262B669
:1053200010BDC046C046C046C046C046C046C04686
:1053300038B54369041C0D1C002B07D0201C0C3011
:10534000291CFCF785F900280BDB38BD043004214B
:10535000FBF71EFF201C0C30291CFCF779F90028F4
:10536000F3DA201D8021FBF713FFEEE7C046C046AD
:1053700010B51C4B1C481A69012252421A610022C6
:105380001A61D9680143D96018481949DA60486040
:1053900007208A600860D869802149050143D961E6
:1053A000144980200C68400020430860196AC0201E
:1053B0008000084080218900884203D08021490272
:1053C00019621A62074B8022196A1202114207D130
:1053D000186A8021890001431962196A0A431A6216
:1053E00010BDC04600100240FFFFBFFFDF010000FC
:1053F00010E000E000700040C046C046C046C04615
:1054000000B52048012302680221134303600368AA
:105410001C4A1942FBD01368F9210B40136000238A
:1054200053600C20536817491842FBD14A6A012384
:1054300013434B6202204B6A124A1842FBD0A1234D
:105440009B0353600023D3621363116880235B04C2
:105450000B4380201360800413680A490342FBD089
:10546000094B11221A604A68022313434B600C2037
:105470004B68044A0340082BFAD1916901230B437E
:10548000936100BD0010024000200240C046C046AB
:105490002A4BBC225969D2030A435A6142689023BD
:1054A000DB055A6082689A60C268DA6002695A61F4
:1054B00042691A6282695A6202681A60026A204B63
:1054C0005A60426A9A60826ADA60C26A5A61026B02
:1054D0001A62426B5A62C2691A60C26B194B5A60F7
:1054E000026C9A60426CDA60826C5A61C26C1A6219
:1054F000026D5A62826B1A60826D134B5A60C26DE4
:105500009A60026EDA60426E5A61826E1A62C26EF0
:105510005A62426D1A60426F0C4B5A60826F9A60F9
:10552000C26FDA60802282585A61842282581A62DD
:10553000882282585A62026F1A6070470010024037
:105540000004004800080048000C0048001400480F
:10555000F0B55F4656464D464446F0B4032756071D
:10556000D506540617405205120F072383B0A40F27
:10557000924600229946F60FAD0F0194131C2BE0C2
:10558000026AA243444622430262446801229A40CE
:1055900094433443446082685C0090460322A240F6
:1055A000D243444614402C4384609446C268141C81
:1055B00062461440019A1443C4600468221C644685
:1055C00022403A43026049081CD0019A76009200BA
:1055D000AD000192BF00013301240C42F3D04A46D2
:1055E0001A40920054469440A0460F249440A4468A
:1055F000072BC5D9426A141C6246944342461443A1
:105600004462C2E703B03CBC90469946A246AB4612
:10561000F0BDC046C046C046C046C046C046C046B3
:1056200070B57646174D2B691A69DC681440FF2265
:105630001440E2431A61A3071ED4630717D423075B
:1056400010D4E30609D4E30703D56B68281C9B68D4
:105650009847301CFAF764FE70BD6B68281C9B6A83
:105660009847F0E76B68281C1B6A9847E9E76B6866
:10567000281C9B699847E2E76B68281C1B699847C0
:10568000DBE7C04620110020C046C046C046C046E9
:1056900010B5044C201CFFF7CBFD8023DB052361F4
:1056A00010BDC04620110020C046C046C046C046BE
:1056B000024B802219680A431A6070470038014083
:1056C000F8B54F464646C0B47746324E756F2A68E5
:1056D000EC6990462C62230711D02107C90FC9013C
:1056E000E20701D520231943A30701D5402319431D
:1056F000620723D472B6301DFBF74AFD62B6E3059C
:1057000020D4A20627D480234246134201D023424C
:1057100029D140239946234209D072B61021301D69
:10572000FBF736FD62B643464A4693432B60381C6E
:10573000FAF7F6FD0CBC90469946F8BD80235B0055
:105740001943D7E772B68021301D8900FBF720FD91
:1057500062B6A206D7D572B6A98C301CC9B2FFF7C3
:10576000E7FD62B6CFE772B6301C3030FCF740F888
:10577000002803DB80B2288562B6CAE7301D082105
:10578000FBF706FDC02342469A43402313432B6098
:10579000F2E7C04634110020C046C046C046C046AD
:1057A00010B5054C0021201C044AFFF791FD044B65
:1057B0006367044BA36710BD34110020B156000885
:1057C00000380140006CDC02C046C046C046C046FE
:1057D00070B5061C0C1E27D0337A012B16D0B06F83
:1057E0002168FAF7B5FCA368756F4022134380B2B5
:1057F000A8816B60E36801221343AB600B4A6368C6
:1058000013432B6001235B422B6270BD084B9E4209
:10581000E5D1084B80229969D2010A439A611B2085
:10582000C021FAF7D5FDDAE7034CD5E72D010000DA
:10583000341100200010024050650008C046C046E8
:1058400008B5FFF7DDFD08BDC046C046C046C046EE
:105850007047C046C046C046C046C046C046C04667
:1058600038B5084B084A9B69084D9A618024A4000A
:10587000FA206C838000FBF76BF82C830448FBF75D
:1058800067F8F3E7D0090020F06500080008004839
:10589000B80B0000C046C046C046C046C046C04621
:1058A00038B5084B084A9B698024084D9A6164000A
:1058B0006C830748FBF74CF82C830548FBF748F846
:1058C000F6E7C046D0090020FC6500080008004843
:1058D00030750000C046C046C046C046C046C046FF
:1058E00069646C650000000000000000000000001A
:1058F0006D61696E0016C011040448080C1014187C
:10590000001C1D1E1F200000000000000000000001
:10591000180A0020480B0020780C0020A80D002059
:10592000D80E002000000000000000000000000071
:105930000D0A00002A2A2A2043686962694F532F02
:105940005254207465737420737569746500000087
:105950002A2A2A002A2A2A204B65726E656C3A2070
:105960002020202020200000322E372E30756E732C
:105970007461626C650000002A2A2A20436F6D70F2
:10598000696C65643A202020202000004F63742059
:1059900032312032303133202D2031353A30313A16
:1059A000313200002A2A2A20436F6D70696C6572BB
:1059B0003A2020202020000047434320342E362E5A
:1059C000320000002A2A2A204172636869746563E4
:1059D000747572653A20000041524D76362D4D00A7
:1059E0002A2A2A20436F72652056617269616E749B
:1059F0003A200000436F727465782D4D300000002E
:105A00002A2A2A20506F727420496E666F3A20202D
:105A100020200000507265656D7074696F6E20748F
:105A200068726F756768204E4D4900002A2A2A2047
:105A3000506C6174666F726D3A2020202020000047
:105A400053544D33324630357820456E7472792088
:105A50004C6576656C0000002A2A2A205465737410
:105A600020426F6172643A2020200000535420537A
:105A7000544D333246302D446973636F76657279C5
:105A8000000000002D2D2D20546573742043617398
:105A9000652000002E0000002028000029000000E2
:105AA0002D2D2D20526573756C743A204641494C5A
:105AB0005552452028230000205B00005D2900008E
:105AC0002D2D2D20526573756C743A205355434328
:105AD0004553530046696E616C20726573756C7432
